{
  "contractName": "VotingSystem",
  "abi": [
    {
      "inputs": [
        {
          "internalType": "address",
          "name": "",
          "type": "address"
        }
      ],
      "name": "candidateInfo",
      "outputs": [
        {
          "internalType": "string",
          "name": "matricule",
          "type": "string"
        },
        {
          "internalType": "uint256",
          "name": "voteCount",
          "type": "uint256"
        }
      ],
      "stateMutability": "view",
      "type": "function"
    },
    {
      "inputs": [
        {
          "internalType": "uint256",
          "name": "",
          "type": "uint256"
        }
      ],
      "name": "candidateList",
      "outputs": [
        {
          "internalType": "address",
          "name": "",
          "type": "address"
        }
      ],
      "stateMutability": "view",
      "type": "function"
    },
    {
      "inputs": [
        {
          "internalType": "address",
          "name": "",
          "type": "address"
        }
      ],
      "name": "candidates",
      "outputs": [
        {
          "internalType": "bool",
          "name": "",
          "type": "bool"
        }
      ],
      "stateMutability": "view",
      "type": "function"
    },
    {
      "inputs": [
        {
          "internalType": "address",
          "name": "",
          "type": "address"
        }
      ],
      "name": "hasVoted",
      "outputs": [
        {
          "internalType": "bool",
          "name": "",
          "type": "bool"
        }
      ],
      "stateMutability": "view",
      "type": "function"
    },
    {
      "inputs": [
        {
          "internalType": "address",
          "name": "",
          "type": "address"
        }
      ],
      "name": "participants",
      "outputs": [
        {
          "internalType": "bool",
          "name": "",
          "type": "bool"
        }
      ],
      "stateMutability": "view",
      "type": "function"
    },
    {
      "inputs": [],
      "name": "registerParticipant",
      "outputs": [],
      "stateMutability": "nonpayable",
      "type": "function"
    },
    {
      "inputs": [
        {
          "internalType": "string",
          "name": "_matricule",
          "type": "string"
        }
      ],
      "name": "registerCandidate",
      "outputs": [],
      "stateMutability": "nonpayable",
      "type": "function"
    },
    {
      "inputs": [
        {
          "internalType": "address",
          "name": "_candidate",
          "type": "address"
        }
      ],
      "name": "castVote",
      "outputs": [],
      "stateMutability": "nonpayable",
      "type": "function"
    },
    {
      "inputs": [],
      "name": "getCandidateList",
      "outputs": [
        {
          "internalType": "address[]",
          "name": "",
          "type": "address[]"
        }
      ],
      "stateMutability": "view",
      "type": "function"
    },
    {
      "inputs": [
        {
          "internalType": "address",
          "name": "_candidate",
          "type": "address"
        }
      ],
      "name": "getCandidateInfo",
      "outputs": [
        {
          "internalType": "string",
          "name": "",
          "type": "string"
        },
        {
          "internalType": "uint256",
          "name": "",
          "type": "uint256"
        }
      ],
      "stateMutability": "view",
      "type": "function"
    }
  ],
  "bytecode": "0x608060405234801561001057600080fd5b5061147a806100206000396000f3fe608060405234801561001057600080fd5b506004361061009e5760003560e01c80639eb88db6116100665780639eb88db614610180578063b13c744b1461019c578063ccfc811b146101cc578063e965b7c9146101d6578063fdbc4006146102075761009e565b806309e69ede146100a357806309eef43e146100d357806328bde1e11461010357806353358fc4146101345780638ab66a9014610150575b600080fd5b6100bd60048036038101906100b89190610a8a565b610225565b6040516100ca9190610ad2565b60405180910390f35b6100ed60048036038101906100e89190610a8a565b610245565b6040516100fa9190610ad2565b60405180910390f35b61011d60048036038101906101189190610a8a565b610265565b60405161012b929190610b96565b60405180910390f35b61014e60048036038101906101499190610a8a565b61040f565b005b61016a60048036038101906101659190610a8a565b610666565b6040516101779190610ad2565b60405180910390f35b61019a60048036038101906101959190610cfb565b610686565b005b6101b660048036038101906101b19190610d70565b610846565b6040516101c39190610dac565b60405180910390f35b6101d4610885565b005b6101f060048036038101906101eb9190610a8a565b6108de565b6040516101fe929190610b96565b60405180910390f35b61020f61098a565b60405161021c9190610e85565b60405180910390f35b60006020528060005260406000206000915054906101000a900460ff1681565b60026020528060005260406000206000915054906101000a900460ff1681565b60606000600160008473ffffffffffffffffffffffffffffffffffffffff1673ffffffffffffffffffffffffffffffffffffffff16815260200190815260200160002060009054906101000a900460ff166102f5576040517f08c379a00000000000000000000000000000000000000000000000000000000081526004016102ec90610f3f565b60405180910390fd5b600360008473ffffffffffffffffffffffffffffffffffffffff1673ffffffffffffffffffffffffffffffffffffffff168152602001908152602001600020600001600360008573ffffffffffffffffffffffffffffffffffffffff1673ffffffffffffffffffffffffffffffffffffffff1681526020019081526020016000206001015481805461038690610f8e565b80601f01602080910402602001604051908101604052809291908181526020018280546103b290610f8e565b80156103ff5780601f106103d4576101008083540402835291602001916103ff565b820191906000526020600020905b8154815290600101906020018083116103e257829003601f168201915b5050505050915091509150915091565b6000803373ffffffffffffffffffffffffffffffffffffffff1673ffffffffffffffffffffffffffffffffffffffff16815260200190815260200160002060009054906101000a900460ff1661049a576040517f08c379a000000000000000000000000000000000000000000000000000000000815260040161049190611031565b60405180910390fd5b600160008273ffffffffffffffffffffffffffffffffffffffff1673ffffffffffffffffffffffffffffffffffffffff16815260200190815260200160002060009054906101000a900460ff16610526576040517f08c379a000000000000000000000000000000000000000000000000000000000815260040161051d90610f3f565b60405180910390fd5b600260003373ffffffffffffffffffffffffffffffffffffffff1673ffffffffffffffffffffffffffffffffffffffff16815260200190815260200160002060009054906101000a900460ff16156105b3576040517f08c379a00000000000000000000000000000000000000000000000000000000081526004016105aa9061109d565b60405180910390fd5b600360008273ffffffffffffffffffffffffffffffffffffffff1673ffffffffffffffffffffffffffffffffffffffff1681526020019081526020016000206001016000815480929190610606906110ec565b91905055506001600260003373ffffffffffffffffffffffffffffffffffffffff1673ffffffffffffffffffffffffffffffffffffffff16815260200190815260200160002060006101000a81548160ff02191690831515021790555050565b60016020528060005260406000206000915054906101000a900460ff1681565b6000803373ffffffffffffffffffffffffffffffffffffffff1673ffffffffffffffffffffffffffffffffffffffff16815260200190815260200160002060009054906101000a900460ff16610711576040517f08c379a0000000000000000000000000000000000000000000000000000000008152600401610708906111a6565b60405180910390fd5b60018060003373ffffffffffffffffffffffffffffffffffffffff1673ffffffffffffffffffffffffffffffffffffffff16815260200190815260200160002060006101000a81548160ff02191690831515021790555060405180604001604052808281526020016000815250600360003373ffffffffffffffffffffffffffffffffffffffff1673ffffffffffffffffffffffffffffffffffffffff16815260200190815260200160002060008201518160000190816107d29190611372565b50602082015181600101559050506004339080600181540180825580915050600190039060005260206000200160009091909190916101000a81548173ffffffffffffffffffffffffffffffffffffffff021916908373ffffffffffffffffffffffffffffffffffffffff16021790555050565b6004818154811061085657600080fd5b906000526020600020016000915054906101000a900473ffffffffffffffffffffffffffffffffffffffff1681565b60016000803373ffffffffffffffffffffffffffffffffffffffff1673ffffffffffffffffffffffffffffffffffffffff16815260200190815260200160002060006101000a81548160ff021916908315150217905550565b600360205280600052604060002060009150905080600001805461090190610f8e565b80601f016020809104026020016040519081016040528092919081815260200182805461092d90610f8e565b801561097a5780601f1061094f5761010080835404028352916020019161097a565b820191906000526020600020905b81548152906001019060200180831161095d57829003601f168201915b5050505050908060010154905082565b60606004805480602002602001604051908101604052809291908181526020018280548015610a0e57602002820191906000526020600020905b8160009054906101000a900473ffffffffffffffffffffffffffffffffffffffff1673ffffffffffffffffffffffffffffffffffffffff16815260200190600101908083116109c4575b5050505050905090565b6000604051905090565b600080fd5b600080fd5b600073ffffffffffffffffffffffffffffffffffffffff82169050919050565b6000610a5782610a2c565b9050919050565b610a6781610a4c565b8114610a7257600080fd5b50565b600081359050610a8481610a5e565b92915050565b600060208284031215610aa057610a9f610a22565b5b6000610aae84828501610a75565b91505092915050565b60008115159050919050565b610acc81610ab7565b82525050565b6000602082019050610ae76000830184610ac3565b92915050565b600081519050919050565b600082825260208201905092915050565b60005b83811015610b27578082015181840152602081019050610b0c565b60008484015250505050565b6000601f19601f8301169050919050565b6000610b4f82610aed565b610b598185610af8565b9350610b69818560208601610b09565b610b7281610b33565b840191505092915050565b6000819050919050565b610b9081610b7d565b82525050565b60006040820190508181036000830152610bb08185610b44565b9050610bbf6020830184610b87565b9392505050565b600080fd5b600080fd5b7f4e487b7100000000000000000000000000000000000000000000000000000000600052604160045260246000fd5b610c0882610b33565b810181811067ffffffffffffffff82111715610c2757610c26610bd0565b5b80604052505050565b6000610c3a610a18565b9050610c468282610bff565b919050565b600067ffffffffffffffff821115610c6657610c65610bd0565b5b610c6f82610b33565b9050602081019050919050565b82818337600083830152505050565b6000610c9e610c9984610c4b565b610c30565b905082815260208101848484011115610cba57610cb9610bcb565b5b610cc5848285610c7c565b509392505050565b600082601f830112610ce257610ce1610bc6565b5b8135610cf2848260208601610c8b565b91505092915050565b600060208284031215610d1157610d10610a22565b5b600082013567ffffffffffffffff811115610d2f57610d2e610a27565b5b610d3b84828501610ccd565b91505092915050565b610d4d81610b7d565b8114610d5857600080fd5b50565b600081359050610d6a81610d44565b92915050565b600060208284031215610d8657610d85610a22565b5b6000610d9484828501610d5b565b91505092915050565b610da681610a4c565b82525050565b6000602082019050610dc16000830184610d9d565b92915050565b600081519050919050565b600082825260208201905092915050565b6000819050602082019050919050565b610dfc81610a4c565b82525050565b6000610e0e8383610df3565b60208301905092915050565b6000602082019050919050565b6000610e3282610dc7565b610e3c8185610dd2565b9350610e4783610de3565b8060005b83811015610e78578151610e5f8882610e02565b9750610e6a83610e1a565b925050600181019050610e4b565b5085935050505092915050565b60006020820190508181036000830152610e9f8184610e27565b905092915050565b7f54686520616464726573732070726f766964656420646f6573206e6f7420636f60008201527f72726573706f6e6420746f206120726567697374657265642063616e6469646160208201527f74652e0000000000000000000000000000000000000000000000000000000000604082015250565b6000610f29604383610af8565b9150610f3482610ea7565b606082019050919050565b60006020820190508181036000830152610f5881610f1c565b9050919050565b7f4e487b7100000000000000000000000000000000000000000000000000000000600052602260045260246000fd5b60006002820490506001821680610fa657607f821691505b602082108103610fb957610fb8610f5f565b5b50919050565b7f596f75206d75737420626520612072656769737465726564207061727469636960008201527f70616e7420746f2063617374206120766f74652e000000000000000000000000602082015250565b600061101b603483610af8565b915061102682610fbf565b604082019050919050565b6000602082019050818103600083015261104a8161100e565b9050919050565b7f596f75206861766520616c7265616479206361737420796f757220766f74652e600082015250565b6000611087602083610af8565b915061109282611051565b602082019050919050565b600060208201905081810360008301526110b68161107a565b9050919050565b7f4e487b7100000000000000000000000000000000000000000000000000000000600052601160045260246000fd5b60006110f782610b7d565b91507fffffffffffffffffffffffffffffffffffffffffffffffffffffffffffffffff8203611129576111286110bd565b5b600182019050919050565b7f596f75206d75737420626520612072656769737465726564207061727469636960008201527f70616e7420746f20726567697374657220617320612063616e6469646174652e602082015250565b6000611190604083610af8565b915061119b82611134565b604082019050919050565b600060208201905081810360008301526111bf81611183565b9050919050565b60008190508160005260206000209050919050565b60006020601f8301049050919050565b600082821b905092915050565b6000600883026112287fffffffffffffffffffffffffffffffffffffffffffffffffffffffffffffffff826111eb565b61123286836111eb565b95508019841693508086168417925050509392505050565b6000819050919050565b600061126f61126a61126584610b7d565b61124a565b610b7d565b9050919050565b6000819050919050565b61128983611254565b61129d61129582611276565b8484546111f8565b825550505050565b600090565b6112b26112a5565b6112bd818484611280565b505050565b5b818110156112e1576112d66000826112aa565b6001810190506112c3565b5050565b601f821115611326576112f7816111c6565b611300846111db565b8101602085101561130f578190505b61132361131b856111db565b8301826112c2565b50505b505050565b600082821c905092915050565b60006113496000198460080261132b565b1980831691505092915050565b60006113628383611338565b9150826002028217905092915050565b61137b82610aed565b67ffffffffffffffff81111561139457611393610bd0565b5b61139e8254610f8e565b6113a98282856112e5565b600060209050601f8311600181146113dc57600084156113ca578287015190505b6113d48582611356565b86555061143c565b601f1984166113ea866111c6565b60005b82811015611412578489015182556001820191506020850194506020810190506113ed565b8683101561142f578489015161142b601f891682611338565b8355505b6001600288020188555050505b50505050505056fea2646970667358221220c6824f23bd8646022b784434a134a35d024369b5430e524924a7d5fb3771ae9864736f6c63430008130033",
  "immutableReferences": {},
  "source": "pragma solidity ^0.8.0;\r\n\r\ncontract VotingSystem {\r\n\r\n    struct Candidate {\r\n        string matricule;\r\n        uint voteCount;\r\n    }\r\n\r\n    mapping(address => bool) public participants;\r\n    mapping(address => bool) public candidates;\r\n    mapping(address => bool) public hasVoted;\r\n    mapping(address => Candidate) public candidateInfo;\r\n    address[] public candidateList;\r\n\r\n    function registerParticipant() public {\r\n        participants[msg.sender] = true;\r\n    }\r\n\r\n    function registerCandidate(string memory _matricule) public {\r\n        require(participants[msg.sender], \"You must be a registered participant to register as a candidate.\");\r\n        candidates[msg.sender] = true;\r\n        candidateInfo[msg.sender] = Candidate({ matricule: _matricule, voteCount: 0 });\r\n        candidateList.push(msg.sender);\r\n    }\r\n\r\n    function castVote(address _candidate) public {\r\n        require(participants[msg.sender], \"You must be a registered participant to cast a vote.\");\r\n        require(candidates[_candidate], \"The address provided does not correspond to a registered candidate.\");\r\n        require(!hasVoted[msg.sender], \"You have already cast your vote.\");\r\n\r\n        candidateInfo[_candidate].voteCount++;\r\n        hasVoted[msg.sender] = true;\r\n    }\r\n\r\n    function getCandidateList() public view returns (address[] memory) {\r\n        return candidateList;\r\n    }\r\n\r\n    function getCandidateInfo(address _candidate) public view returns (string memory, uint) {\r\n        require(candidates[_candidate], \"The address provided does not correspond to a registered candidate.\");\r\n\r\n        return (candidateInfo[_candidate].matricule, candidateInfo[_candidate].voteCount);\r\n    }\r\n}",
  "sourcePath": "C:\\Users\\GLC\\Desktop\\Voting\\contracts\\Voting.sol",
  "compiler": {
    "name": "solc",
    "version": "0.8.19+commit.7dd6d404.Emscripten.clang"
  },
  "schemaVersion": "3.4.13",
  "updatedAt": "2023-05-09T05:59:27.106Z",
  "devdoc": {
    "kind": "dev",
    "methods": {},
    "version": 1
  },
  "userdoc": {
    "kind": "user",
    "methods": {},
    "version": 1
  }
}